20180105-12:52:15.058 : 8=FIX.4.2|9=143|35=A|34=293|49=4V5004N|50=Falcon001|52=20180105-12:52:15.058|56=CME|57=G|142=CN|369=340|95=5|96=1IB3P|98=0|108=30|1603=SunX|1604=1.0|1605=SunX|10=245|
20180105-12:52:16.771 : 8=FIX.4.2|9=129|35=A|34=341|369=293|52=20180105-12:52:16.656|49=CME|50=G|56=4V5004N|57=FALCON001|143=CN|98=0|108=30|1603=SunX|1604=1.0|1605=SunX|10=147|
20180105-12:52:16.978 : 8=FIX.4.2|9=103|35=1|34=342|369=293|52=20180105-12:52:16.656|49=CME|50=G|56=4V5004N|57=FALCON001|143=CN|112=IDjbzoam8f|10=029|
20180105-12:52:16.978 : 8=FIX.4.2|9=103|35=0|34=294|49=4V5004N|50=Falcon001|52=20180105-12:52:16.978|56=CME|57=G|142=CN|369=341|112=IDjbzoam8f|10=194|
20180105-12:52:46.832 : 8=FIX.4.2|9=88|35=0|34=343|369=294|52=20180105-12:52:46.713|49=CME|50=G|56=4V5004N|57=FALCON001|143=CN|10=119|
20180105-12:52:46.833 : 8=FIX.4.2|9=88|35=0|34=295|49=4V5004N|50=Falcon001|52=20180105-12:52:46.832|56=CME|57=G|142=CN|369=343|10=025|
20180105-12:53:16.913 : 8=FIX.4.2|9=88|35=0|34=296|49=4V5004N|50=Falcon001|52=20180105-12:53:16.913|56=CME|57=G|142=CN|369=343|10=024|
20180105-12:53:17.837 : 8=FIX.4.2|9=88|35=0|34=344|369=296|52=20180105-12:53:17.720|49=CME|50=G|56=4V5004N|57=FALCON001|143=CN|10=119|
20180105-12:53:26.207 : 8=FIX.4.2|9=232|35=D|34=297|49=4V5004N|50=Falcon001|52=20180105-12:53:26.207|56=CME|57=G|142=CN|369=344|1=ABC|11=201801050001|21=1|38=5|40=2|44=100|54=1|59=0|60=20180105-12:53:26|107=2ZQF9|167=FUT|204=0|210=5|1028=Y|1031=F|9702=1|9717=201801050001|10=076|
20180105-12:53:29.266 : 8=FIX.4.2|9=337|35=8|34=345|369=297|52=20180105-12:53:29.147|49=CME|50=G|56=4V5004N|57=FALCON001|143=CN|1=ABC|6=0|11=201801050001|14=0|17=99365:21831|20=0|37=9932166980|38=5|39=0|40=2|41=0|44=100|48=998141|54=1|55=90|59=0|60=20180105-12:53:29.145|107=2ZQF9|150=0|151=5|167=FUT|210=5|432=20180105|1028=Y|1031=F|5979=1515156809145592865|9717=201801050001|10=117|
20180105-12:53:29.471 : 8=FIX.4.2|9=424|35=8|34=346|369=297|52=20180105-12:53:29.147|49=CME|50=G|56=4V5004N|57=FALCON001|143=CN|1=ABC|6=0|11=201801050001|14=1|17=99365:M:4858TN0000005|20=0|31=100|32=1|37=9932166980|38=5|39=1|40=2|41=0|44=100|48=998141|54=1|55=90|59=0|60=20180105-12:53:29.145|75=20180105|107=2ZQF9|150=1|151=4|167=FUT|337=TRADE|375=CME000A|432=20180105|442=1|527=9932166980201801055|1028=Y|1031=F|1057=Y|5979=1515156809145592865|9717=201801050001|10=251|
20180105-12:53:29.471 : 8=FIX.4.2|9=424|35=8|34=350|369=297|52=20180105-12:53:29.151|49=CME|50=G|56=4V5004N|57=FALCON001|143=CN|1=ABC|6=0|11=201801050001|14=5|17=99365:M:4866TN0000009|20=0|31=100|32=1|37=9932166980|38=5|39=2|40=2|41=0|44=100|48=998141|54=1|55=90|59=0|60=20180105-12:53:29.145|75=20180105|107=2ZQF9|150=2|151=0|167=FUT|337=TRADE|375=CME000A|432=20180105|442=1|527=9932166980201801059|1028=Y|1031=F|1057=Y|5979=1515156809145592865|9717=201801050001|10=250|
20180105-12:53:29.472 : 8=FIX.4.2|9=99|35=2|34=298|49=4V5004N|50=Falcon001|52=20180105-12:53:29.471|56=CME|57=G|142=CN|369=346|7=347|16=0|10=012|
20180105-12:53:29.686 : 8=FIX.4.2|9=455|35=8|34=347|369=298|52=20180105-12:53:29.569|43=Y|49=CME|50=G|56=4V5004N|57=FALCON001|122=20180105-12:53:29.147|143=CN|1=ABC|6=0|11=201801050001|14=2|17=99365:M:4860TN0000006|20=0|31=100|32=1|37=9932166980|38=5|39=1|40=2|41=0|44=100|48=998141|54=1|55=90|59=0|60=20180105-12:53:29.145|75=20180105|107=2ZQF9|150=1|151=3|167=FUT|337=TRADE|375=CME000A|432=20180105|442=1|527=9932166980201801056|1028=Y|1031=F|1057=Y|5979=1515156809145592865|9717=201801050001|10=007|
20180105-12:53:29.939 : 8=FIX.4.2|9=455|35=8|34=349|369=298|52=20180105-12:53:29.570|43=Y|49=CME|50=G|56=4V5004N|57=FALCON001|122=20180105-12:53:29.151|143=CN|1=ABC|6=0|11=201801050001|14=4|17=99365:M:4864TN0000008|20=0|31=100|32=1|37=9932166980|38=5|39=1|40=2|41=0|44=100|48=998141|54=1|55=90|59=0|60=20180105-12:53:29.145|75=20180105|107=2ZQF9|150=1|151=1|167=FUT|337=TRADE|375=CME000A|432=20180105|442=1|527=9932166980201801058|1028=Y|1031=F|1057=Y|5979=1515156809145592865|9717=201801050001|10=004|
20180105-12:53:29.939 : 8=FIX.4.2|9=99|35=2|34=299|49=4V5004N|50=Falcon001|52=20180105-12:53:29.939|56=CME|57=G|142=CN|369=347|7=348|16=0|10=024|
20180105-12:53:29.939 : 8=FIX.4.2|9=455|35=8|34=350|369=298|52=20180105-12:53:29.570|43=Y|49=CME|50=G|56=4V5004N|57=FALCON001|122=20180105-12:53:29.151|143=CN|1=ABC|6=0|11=201801050001|14=5|17=99365:M:4866TN0000009|20=0|31=100|32=1|37=9932166980|38=5|39=2|40=2|41=0|44=100|48=998141|54=1|55=90|59=0|60=20180105-12:53:29.145|75=20180105|107=2ZQF9|150=2|151=0|167=FUT|337=TRADE|375=CME000A|432=20180105|442=1|527=9932166980201801059|1028=Y|1031=F|1057=Y|5979=1515156809145592865|9717=201801050001|10=002|
20180105-12:53:30.153 : 8=FIX.4.2|9=455|35=8|34=348|369=299|52=20180105-12:53:30.037|43=Y|49=CME|50=G|56=4V5004N|57=FALCON001|122=20180105-12:53:29.150|143=CN|1=ABC|6=0|11=201801050001|14=3|17=99365:M:4862TN0000007|20=0|31=100|32=1|37=9932166980|38=5|39=1|40=2|41=0|44=100|48=998141|54=1|55=90|59=0|60=20180105-12:53:29.145|75=20180105|107=2ZQF9|150=1|151=2|167=FUT|337=TRADE|375=CME000A|432=20180105|442=1|527=9932166980201801057|1028=Y|1031=F|1057=Y|5979=1515156809145592865|9717=201801050001|10=245|
20180105-12:53:30.398 : 8=FIX.4.2|9=455|35=8|34=349|369=299|52=20180105-12:53:30.037|43=Y|49=CME|50=G|56=4V5004N|57=FALCON001|122=20180105-12:53:29.151|143=CN|1=ABC|6=0|11=201801050001|14=4|17=99365:M:4864TN0000008|20=0|31=100|32=1|37=9932166980|38=5|39=1|40=2|41=0|44=100|48=998141|54=1|55=90|59=0|60=20180105-12:53:29.145|75=20180105|107=2ZQF9|150=1|151=1|167=FUT|337=TRADE|375=CME000A|432=20180105|442=1|527=9932166980201801058|1028=Y|1031=F|1057=Y|5979=1515156809145592865|9717=201801050001|10=251|
20180105-12:53:30.398 : 8=FIX.4.2|9=455|35=8|34=350|369=299|52=20180105-12:53:30.037|43=Y|49=CME|50=G|56=4V5004N|57=FALCON001|122=20180105-12:53:29.151|143=CN|1=ABC|6=0|11=201801050001|14=5|17=99365:M:4866TN0000009|20=0|31=100|32=1|37=9932166980|38=5|39=2|40=2|41=0|44=100|48=998141|54=1|55=90|59=0|60=20180105-12:53:29.145|75=20180105|107=2ZQF9|150=2|151=0|167=FUT|337=TRADE|375=CME000A|432=20180105|442=1|527=9932166980201801059|1028=Y|1031=F|1057=Y|5979=1515156809145592865|9717=201801050001|10=249|
20180105-12:53:59.960 : 8=FIX.4.2|9=88|35=0|34=300|49=4V5004N|50=Falcon001|52=20180105-12:53:59.960|56=CME|57=G|142=CN|369=350|10=017|
20180105-12:54:00.843 : 8=FIX.4.2|9=88|35=0|34=351|369=300|52=20180105-12:54:00.725|49=CME|50=G|56=4V5004N|57=FALCON001|143=CN|10=101|
20180105-12:54:29.991 : 8=FIX.4.2|9=88|35=0|34=301|49=4V5004N|50=Falcon001|52=20180105-12:54:29.991|56=CME|57=G|142=CN|369=351|10=021|
20180105-12:54:31.847 : 8=FIX.4.2|9=88|35=0|34=352|369=301|52=20180105-12:54:31.729|49=CME|50=G|56=4V5004N|57=FALCON001|143=CN|10=111|
20180105-12:54:59.022 : 8=FIX.4.2|9=88|35=0|34=302|49=4V5004N|50=Falcon001|52=20180105-12:54:59.022|56=CME|57=G|142=CN|369=352|10=011|
20180105-12:55:02.859 : 8=FIX.4.2|9=88|35=0|34=353|369=302|52=20180105-12:55:02.732|49=CME|50=G|56=4V5004N|57=FALCON001|143=CN|10=106|
20180105-12:55:29.055 : 8=FIX.4.2|9=88|35=0|34=303|49=4V5004N|50=Falcon001|52=20180105-12:55:29.055|56=CME|57=G|142=CN|369=353|10=017|
20180105-12:55:33.854 : 8=FIX.4.2|9=88|35=0|34=354|369=303|52=20180105-12:55:33.737|49=CME|50=G|56=4V5004N|57=FALCON001|143=CN|10=117|
20180105-12:55:59.088 : 8=FIX.4.2|9=88|35=0|34=304|49=4V5004N|50=Falcon001|52=20180105-12:55:59.088|56=CME|57=G|142=CN|369=354|10=028|
20180105-12:56:04.094 : 8=FIX.4.2|9=96|35=5|34=305|49=4V5004N|50=Falcon001|52=20180105-12:56:04.094|56=CME|57=G|142=CN|369=354|789=305|10=147|
20180105-12:56:04.309 : 8=FIX.4.2|9=117|35=5|34=355|369=305|52=20180105-12:56:04.193|49=CME|50=G|56=4V5004N|57=FALCON001|143=CN|58=Logout confirmed.|789=306|10=074|
