20171222-15:27:05.904 : 8=FIX.4.2^A9=91^A35=0^A34=1338^A49=4V5004N^A50=Falcon001^A52=20171222-15:27:05.904^A56=CME^A57=G^A142=CN^A369=53310^A10=164^A
20171222-15:27:15.095 : 8=FIX.4.2^A9=239^A35=D^A34=1339^A49=4V5004N^A50=Falcon001^A52=20171222-15:27:15.095^A56=CME^A57=G^A142=CN^A369=53310^A1=ABC^A11=201712220027^A21=1^A38=100^A40=2^A44=100^A54=1^A59=0^A60=20171222-15:27:15^A107=2ZQF9^A167=FUT^A204=0^A210=100^A1028=Y^A1031=F^A9702=1^A9717=201712220027^A10=179^A
20171222-15:27:34.936 : 8=FIX.4.2^A9=100^A35=1^A34=1340^A49=4V5004N^A50=Falcon001^A52=20171222-15:27:34.936^A56=CME^A57=G^A142=CN^A369=53310^A112=TEST^A10=222^A
20171222-15:27:35.129 : 8=FIX.4.2^A9=103^A35=2^A34=53311^A369=1338^A52=20171222-15:27:15.192^A49=CME^A50=G^A56=4V5004N^A57=FALCON001^A143=CN^A7=1339^A16=0^A10=076^A
20171222-15:27:35.129 : 8=FIX.4.2^A9=270^A35=D^A34=1339^A43=Y^A49=4V5004N^A50=Falcon001^A52=20171222-15:27:35.129^A56=CME^A57=G^A122=20171222-15:27:15.095^A142=CN^A369=53310^A1=ABC^A11=201712220027^A21=1^A38=100^A40=2^A44=100^A54=1^A59=0^A60=20171222-15:27:15^A107=2ZQF9^A167=FUT^A204=0^A210=100^A1028=Y^A1031=F^A9702=1^A9717=201712220027^A10=178^A
20171222-15:27:35.130 : 8=FIX.4.2^A9=136^A35=4^A34=1340^A43=Y^A49=4V5004N^A50=Falcon001^A52=20171222-15:27:35.130^A56=CME^A57=G^A122=20171222-15:27:35.129^A142=CN^A369=53310^A36=1341^A123=Y^A10=108^A
20171222-15:27:35.314 : 8=FIX.4.2^A9=108^A35=2^A34=53311^A369=1338^A52=20171222-15:27:35.031^A43=Y^A49=CME^A50=G^A56=4V5004N^A57=FALCON001^A143=CN^A7=1339^A16=0^A10=073^A
20171222-15:27:35.314 : 8=FIX.4.2^A9=270^A35=D^A34=1339^A43=Y^A49=4V5004N^A50=Falcon001^A52=20171222-15:27:35.314^A56=CME^A57=G^A122=20171222-15:27:15.095^A142=CN^A369=53311^A1=ABC^A11=201712220027^A21=1^A38=100^A40=2^A44=100^A54=1^A59=0^A60=20171222-15:27:15^A107=2ZQF9^A167=FUT^A204=0^A210=100^A1028=Y^A1031=F^A9702=1^A9717=201712220027^A10=175^A
20171222-15:27:35.315 : 8=FIX.4.2^A9=136^A35=4^A34=1340^A43=Y^A49=4V5004N^A50=Falcon001^A52=20171222-15:27:35.315^A56=CME^A57=G^A122=20171222-15:27:35.314^A142=CN^A369=53311^A36=1341^A123=Y^A10=110^A
20171222-15:27:35.539 : 8=FIX.4.2^A9=346^A35=8^A34=53312^A369=1339^A52=20171222-15:27:35.225^A49=CME^A50=G^A56=4V5004N^A57=FALCON001^A143=CN^A1=ABC^A6=0^A11=201712220027^A14=0^A17=99362:13443^A20=0^A37=9931804765^A38=100^A39=0^A40=2^A41=0^A44=100^A48=998141^A54=1^A55=90^A59=0^A60=20171222-15:27:35.224^A107=2ZQF9^A150=0^A151=100^A167=FUT^A210=100^A432=20171222^A1028=Y^A1031=F^A5979=1513956455224050704^A9717=201712220027^A10=016^A
20171222-15:28:05.703 : 8=FIX.4.2^A9=106^A35=1^A34=53313^A369=1340^A52=20171222-15:28:05.604^A49=CME^A50=G^A56=4V5004N^A57=FALCON001^A143=CN^A112=IDjbauzjvp^A10=248^A
20171222-15:28:05.703 : 8=FIX.4.2^A9=106^A35=0^A34=1341^A49=4V5004N^A50=Falcon001^A52=20171222-15:28:05.703^A56=CME^A57=G^A142=CN^A369=53312^A112=IDjbauzjvp^A10=150^A
20171222-15:28:35.002 : 8=FIX.4.2^A9=91^A35=0^A34=1342^A49=4V5004N^A50=Falcon001^A52=20171222-15:28:35.002^A56=CME^A57=G^A142=CN^A369=53313^A10=155^A
20171222-15:28:36.706 : 8=FIX.4.2^A9=91^A35=0^A34=53314^A369=1342^A52=20171222-15:28:36.607^A49=CME^A50=G^A56=4V5004N^A57=FALCON001^A143=CN^A10=009^A
20171222-15:28:39.054 : 8=FIX.4.2^A9=239^A35=D^A34=1343^A49=4V5004N^A50=Falcon001^A52=20171222-15:28:39.053^A56=CME^A57=G^A142=CN^A369=53314^A1=ABC^A11=201712220028^A21=1^A38=101^A40=2^A44=101^A54=1^A59=0^A60=20171222-15:28:39^A107=2ZQF9^A167=FUT^A204=0^A210=101^A1028=Y^A1031=F^A9702=1^A9717=201712220028^A10=191^A
20171222-15:28:39.248 : 8=FIX.4.2^A9=346^A35=8^A34=53315^A369=1343^A52=20171222-15:28:39.150^A49=CME^A50=G^A56=4V5004N^A57=FALCON001^A143=CN^A1=ABC^A6=0^A11=201712220028^A14=0^A17=99362:13444^A20=0^A37=9931804766^A38=101^A39=0^A40=2^A41=0^A44=101^A48=998141^A54=1^A55=90^A59=0^A60=20171222-15:28:39.148^A107=2ZQF9^A150=0^A151=101^A167=FUT^A210=101^A432=20171222^A1028=Y^A1031=F^A5979=1513956519148695417^A9717=201712220028^A10=056^A
20171222-15:29:40.713 : 8=FIX.4.2^A9=91^A35=0^A34=53317^A369=1345^A52=20171222-15:29:40.614^A49=CME^A50=G^A56=4V5004N^A57=FALCON001^A143=CN^A10=009^A
20171222-15:30:09.103 : 8=FIX.4.2^A9=91^A35=0^A34=1346^A49=4V5004N^A50=Falcon001^A52=20171222-15:30:09.103^A56=CME^A57=G^A142=CN^A369=53317^A10=159^A
20171222-15:30:11.722 : 8=FIX.4.2^A9=91^A35=0^A34=53318^A369=1346^A52=20171222-15:30:11.623^A49=CME^A50=G^A56=4V5004N^A57=FALCON001^A143=CN^A10=001^A
20171222-15:30:39.135 : 8=FIX.4.2^A9=91^A35=0^A34=1347^A49=4V5004N^A50=Falcon001^A52=20171222-15:30:39.135^A56=CME^A57=G^A142=CN^A369=53318^A10=169^A