20180125-14:31:24.135 : 8=FIX.4.2|9=144|35=A|34=784|49=P75004N|50=Falcon001|52=20180125-14:31:24.134|56=CME|57=G|142=CN|369=1027|95=5|96=RS23P|98=0|108=30|1603=SunX|1604=1.0|1605=SunX|10=066|
20180125-14:31:25.823 : 8=FIX.4.2|9=130|35=A|34=1028|369=784|52=20180125-14:31:25.731|49=CME|50=G|56=P75004N|57=FALCON001|143=CN|98=0|108=30|1603=SunX|1604=1.0|1605=SunX|10=187|
20180125-14:31:25.823 : 8=FIX.4.2|9=104|35=1|34=1029|369=784|52=20180125-14:31:25.731|49=CME|50=G|56=P75004N|57=FALCON001|143=CN|112=IDjcove81e|10=018|
20180125-14:31:25.823 : 8=FIX.4.2|9=104|35=0|34=785|49=P75004N|50=Falcon001|52=20180125-14:31:25.823|56=CME|57=G|142=CN|369=1028|112=IDjcove81e|10=178|
20180125-14:31:55.982 : 8=FIX.4.2|9=89|35=0|34=786|49=P75004N|50=Falcon001|52=20180125-14:31:55.982|56=CME|57=G|142=CN|369=1029|10=085|
20180125-14:31:56.193 : 8=FIX.4.2|9=89|35=0|34=1030|369=786|52=20180125-14:31:56.102|49=CME|50=G|56=P75004N|57=FALCON001|143=CN|10=159|
20180125-14:32:25.015 : 8=FIX.4.2|9=89|35=0|34=787|49=P75004N|50=Falcon001|52=20180125-14:32:25.014|56=CME|57=G|142=CN|369=1030|10=062|
20180125-14:32:27.196 : 8=FIX.4.2|9=89|35=0|34=1031|369=787|52=20180125-14:32:27.105|49=CME|50=G|56=P75004N|57=FALCON001|143=CN|10=163|
20180125-14:32:29.338 : 8=FIX.4.2|9=231|35=D|34=788|49=P75004N|50=Falcon001|52=20180125-14:32:29.338|56=CME|57=G|142=CN|369=1031|1=ABC|11=201801250012|21=1|38=1000|40=K|54=2|59=0|60=20180125-14:32:29|107=ESH8|167=FUT|204=1|210=1000|1028=Y|1031=F|9702=1|9717=201801250012|10=068|
20180125-14:32:29.535 : 8=FIX.4.2|9=352|35=8|34=1032|369=788|52=20180125-14:32:29.443|49=CME|50=G|56=P75004N|57=FALCON001|143=CN|1=ABC|6=0|11=201801250012|14=0|17=64386:1621120|20=0|37=64493549004|38=1000|39=0|40=K|41=0|44=289225|48=404153|54=2|55=ES|59=0|60=20180125-14:32:29.433|107=ESH8|150=0|151=1000|167=FUT|210=1000|432=20180125|1028=Y|1031=F|5979=1516890749433022805|9717=201801250012|10=105|
20180125-14:32:29.535 : 8=FIX.4.2|9=458|35=8|34=1033|369=788|52=20180125-14:32:29.443|49=CME|50=G|56=P75004N|57=FALCON001|143=CN|1=ABC|6=0|11=201801250012|14=999|17=64386:M:373261TN0002624|20=0|31=289225|32=999|37=64493549004|38=1000|39=1|40=K|41=0|44=289225|48=404153|54=2|55=ES|59=0|60=20180125-14:32:29.433|75=20180125|107=ESH8|150=1|151=1|167=FUT|337=TRADE|375=CME000A|432=20180125|442=1|527=64493549004201801252624|1028=Y|1031=F|1057=Y|5979=1516890749433022805|9717=201801250012|37711=2778559|10=009|
20180125-14:32:29.720 : 8=FIX.4.2|9=457|35=8|34=1034|369=788|52=20180125-14:32:29.443|49=CME|50=G|56=P75004N|57=FALCON001|143=CN|1=ABC|6=0|11=201801250012|14=1000|17=64386:M:373263TN0002625|20=0|31=289225|32=1|37=64493549004|38=1000|39=2|40=K|41=0|44=289225|48=404153|54=2|55=ES|59=0|60=20180125-14:32:29.433|75=20180125|107=ESH8|150=2|151=0|167=FUT|337=TRADE|375=CME000A|432=20180125|442=1|527=64493549004201801252625|1028=Y|1031=F|1057=Y|5979=1516890749433022805|9717=201801250012|37711=2778559|10=170|
20180125-14:32:52.044 : 8=FIX.4.2|9=97|35=5|34=789|49=P75004N|50=Falcon001|52=20180125-14:32:52.043|56=CME|57=G|142=CN|369=1034|789=789|10=216|
20180125-14:32:52.229 : 8=FIX.4.2|9=118|35=5|34=1035|369=789|52=20180125-14:32:52.138|49=CME|50=G|56=P75004N|57=FALCON001|143=CN|58=Logout confirmed.|789=790|10=139|
