20180125-14:08:56.559 : 8=FIX.4.2|9=88|35=0|34=754|49=P75004N|50=Falcon001|52=20180125-14:08:56.559|56=CME|57=G|142=CN|369=979|10=049|
20180125-14:09:01.066 : 8=FIX.4.2|9=88|35=0|34=980|369=754|52=20180125-14:09:00.961|49=CME|50=G|56=P75004N|57=FALCON001|143=CN|10=125|
20180125-14:09:07.136 : 8=FIX.4.2|9=240|35=D|34=755|49=P75004N|50=Falcon001|52=20180125-14:09:07.135|56=CME|57=G|142=CN|369=980|1=ABC|11=201801250003|21=1|38=2000|40=2|44=292000|54=1|59=0|60=20180125-14:09:07|107=ESH8|167=FUT|204=1|210=1000|1028=Y|1031=F|9702=1|9717=201801250003|10=207|
20180125-14:09:07.343 : 8=FIX.4.2|9=351|35=8|34=981|369=755|52=20180125-14:09:07.238|49=CME|50=G|56=P75004N|57=FALCON001|143=CN|1=ABC|6=0|11=201801250003|14=0|17=64386:1601109|20=0|37=64493538099|38=2000|39=0|40=2|41=0|44=292000|48=404153|54=1|55=ES|59=0|60=20180125-14:09:07.230|107=ESH8|150=0|151=2000|167=FUT|210=1000|432=20180125|1028=Y|1031=F|5979=1516889347230596169|9717=201801250003|10=053|
20180125-14:09:07.345 : 8=FIX.4.2|9=460|35=8|34=982|369=755|52=20180125-14:09:07.239|49=CME|50=G|56=P75004N|57=FALCON001|143=CN|1=ABC|6=0|11=201801250003|14=845|17=64386:M:373200TN0002595|20=0|31=289875|32=845|37=64493538099|38=2000|39=1|40=2|41=0|44=292000|48=404153|54=1|55=ES|59=0|60=20180125-14:09:07.230|75=20180125|107=ESH8|150=1|151=1155|167=FUT|337=TRADE|375=CME000A|432=20180125|442=1|527=64493538099201801252595|1028=Y|1031=F|1057=Y|5979=1516889347230596169|9717=201801250003|37711=2778542|10=103|
20180125-14:09:07.345 : 8=FIX.4.2|9=458|35=8|34=983|369=755|52=20180125-14:09:07.239|49=CME|50=G|56=P75004N|57=FALCON001|143=CN|1=ABC|6=0|11=201801250003|14=852|17=64386:M:373202TN0002596|20=0|31=289875|32=7|37=64493538099|38=2000|39=1|40=2|41=0|44=292000|48=404153|54=1|55=ES|59=0|60=20180125-14:09:07.230|75=20180125|107=ESH8|150=1|151=1148|167=FUT|337=TRADE|375=CME000A|432=20180125|442=1|527=64493538099201801252596|1028=Y|1031=F|1057=Y|5979=1516889347230596169|9717=201801250003|37711=2778542|10=009|
20180125-14:09:07.346 : 8=FIX.4.2|9=460|35=8|34=984|369=755|52=20180125-14:09:07.240|49=CME|50=G|56=P75004N|57=FALCON001|143=CN|1=ABC|6=0|11=201801250003|14=1454|17=64386:M:373204TN0002597|20=0|31=289900|32=602|37=64493538099|38=2000|39=1|40=2|41=0|44=292000|48=404153|54=1|55=ES|59=0|60=20180125-14:09:07.230|75=20180125|107=ESH8|150=1|151=546|167=FUT|337=TRADE|375=CME000A|432=20180125|442=1|527=64493538099201801252597|1028=Y|1031=F|1057=Y|5979=1516889347230596169|9717=201801250003|37711=2778543|10=086|
20180125-14:09:07.346 : 8=FIX.4.2|9=459|35=8|34=985|369=755|52=20180125-14:09:07.240|49=CME|50=G|56=P75004N|57=FALCON001|143=CN|1=ABC|6=0|11=201801250003|14=1469|17=64386:M:373206TN0002598|20=0|31=289900|32=15|37=64493538099|38=2000|39=1|40=2|41=0|44=292000|48=404153|54=1|55=ES|59=0|60=20180125-14:09:07.230|75=20180125|107=ESH8|150=1|151=531|167=FUT|337=TRADE|375=CME000A|432=20180125|442=1|527=64493538099201801252598|1028=Y|1031=F|1057=Y|5979=1516889347230596169|9717=201801250003|37711=2778543|10=049|
20180125-14:09:07.346 : 8=FIX.4.2|9=458|35=8|34=986|369=755|52=20180125-14:09:07.240|49=CME|50=G|56=P75004N|57=FALCON001|143=CN|1=ABC|6=0|11=201801250003|14=1477|17=64386:M:373208TN0002599|20=0|31=289900|32=8|37=64493538099|38=2000|39=1|40=2|41=0|44=292000|48=404153|54=1|55=ES|59=0|60=20180125-14:09:07.230|75=20180125|107=ESH8|150=1|151=523|167=FUT|337=TRADE|375=CME000A|432=20180125|442=1|527=64493538099201801252599|1028=Y|1031=F|1057=Y|5979=1516889347230596169|9717=201801250003|37711=2778543|10=007|
20180125-14:09:07.543 : 8=FIX.4.2|9=459|35=8|34=987|369=755|52=20180125-14:09:07.240|49=CME|50=G|56=P75004N|57=FALCON001|143=CN|1=ABC|6=0|11=201801250003|14=1499|17=64386:M:373210TN0002600|20=0|31=289900|32=22|37=64493538099|38=2000|39=1|40=2|41=0|44=292000|48=404153|54=1|55=ES|59=0|60=20180125-14:09:07.230|75=20180125|107=ESH8|150=1|151=501|167=FUT|337=TRADE|375=CME000A|432=20180125|442=1|527=64493538099201801252600|1028=Y|1031=F|1057=Y|5979=1516889347230596169|9717=201801250003|37711=2778543|10=012|
20180125-14:09:07.543 : 8=FIX.4.2|9=459|35=8|34=988|369=755|52=20180125-14:09:07.240|49=CME|50=G|56=P75004N|57=FALCON001|143=CN|1=ABC|6=0|11=201801250003|14=1520|17=64386:M:373212TN0002601|20=0|31=289900|32=21|37=64493538099|38=2000|39=1|40=2|41=0|44=292000|48=404153|54=1|55=ES|59=0|60=20180125-14:09:07.230|75=20180125|107=ESH8|150=1|151=480|167=FUT|337=TRADE|375=CME000A|432=20180125|442=1|527=64493538099201801252601|1028=Y|1031=F|1057=Y|5979=1516889347230596169|9717=201801250003|37711=2778543|10=007|
20180125-14:09:07.543 : 8=FIX.4.2|9=458|35=8|34=989|369=755|52=20180125-14:09:07.240|49=CME|50=G|56=P75004N|57=FALCON001|143=CN|1=ABC|6=0|11=201801250003|14=2000|17=64386:M:373214TN0002602|20=0|31=289925|32=480|37=64493538099|38=2000|39=2|40=2|41=0|44=292000|48=404153|54=1|55=ES|59=0|60=20180125-14:09:07.230|75=20180125|107=ESH8|150=2|151=0|167=FUT|337=TRADE|375=CME000A|432=20180125|442=1|527=64493538099201801252602|1028=Y|1031=F|1057=Y|5979=1516889347230596169|9717=201801250003|37711=2778544|10=220|
20180125-14:09:37.605 : 8=FIX.4.2|9=88|35=0|34=756|49=P75004N|50=Falcon001|52=20180125-14:09:37.605|56=CME|57=G|142=CN|369=989|10=044|
20180125-14:09:38.069 : 8=FIX.4.2|9=88|35=0|34=990|369=756|52=20180125-14:09:37.964|49=CME|50=G|56=P75004N|57=FALCON001|143=CN|10=141|
20180125-14:09:42.610 : 8=FIX.4.2|9=96|35=5|34=757|49=P75004N|50=Falcon001|52=20180125-14:09:42.610|56=CME|57=G|142=CN|369=990|789=757|10=170|
20180125-14:09:42.810 : 8=FIX.4.2|9=117|35=5|34=991|369=757|52=20180125-14:09:42.705|49=CME|50=G|56=P75004N|57=FALCON001|143=CN|58=Logout confirmed.|789=758|10=102|
