20180126-14:58:29.870 : 8=FIX.4.2|9=145|35=A|34=1100|49=P75004N|50=Falcon001|52=20180126-14:58:29.870|56=CME|57=G|142=CN|369=1352|95=5|96=RS23P|98=0|108=30|1603=SunX|1604=1.0|1605=SunX|10=121|
20180126-14:58:31.557 : 8=FIX.4.2|9=130|35=A|34=1354|369=864|52=20180126-14:58:31.466|49=CME|50=G|56=P75004N|57=FALCON001|143=CN|98=0|108=30|1603=SunX|1604=1.0|1605=SunX|10=200|
20180126-14:58:31.558 : 8=FIX.4.2|9=102|35=2|34=1101|49=P75004N|50=Falcon001|52=20180126-14:58:31.558|56=CME|57=G|142=CN|369=1352|7=1353|16=0|10=175|
20180126-14:58:31.558 : 8=FIX.4.2|9=100|35=2|34=1355|369=864|52=20180126-14:58:31.466|49=CME|50=G|56=P75004N|57=FALCON001|143=CN|7=865|16=0|10=197|
20180126-14:58:31.565 : 8=FIX.4.2|9=134|35=4|34=865|43=Y|49=P75004N|50=Falcon001|52=20180126-14:58:31.565|56=CME|57=G|122=20180126-14:58:31.565|142=CN|369=1352|36=1102|123=Y|10=032|
20180126-14:58:31.744 : 8=FIX.4.2|9=135|35=4|34=1353|369=1101|52=20180126-14:58:31.653|43=Y|49=CME|50=G|56=P75004N|57=FALCON001|122=20180126-14:58:31.653|143=CN|36=1356|123=Y|10=170|
20180126-14:59:01.726 : 8=FIX.4.2|9=90|35=0|34=1102|49=P75004N|50=Falcon001|52=20180126-14:59:01.726|56=CME|57=G|142=CN|369=1355|10=108|
20180126-14:59:02.442 : 8=FIX.4.2|9=90|35=0|34=1356|369=1102|52=20180126-14:59:02.351|49=CME|50=G|56=P75004N|57=FALCON001|143=CN|10=201|
20180126-14:59:31.758 : 8=FIX.4.2|9=90|35=0|34=1103|49=P75004N|50=Falcon001|52=20180126-14:59:31.758|56=CME|57=G|142=CN|369=1356|10=118|
20180126-14:59:33.444 : 8=FIX.4.2|9=90|35=0|34=1357|369=1103|52=20180126-14:59:33.353|49=CME|50=G|56=P75004N|57=FALCON001|143=CN|10=209|
20180126-15:00:01.791 : 8=FIX.4.2|9=90|35=0|34=1104|49=P75004N|50=Falcon001|52=20180126-15:00:01.790|56=CME|57=G|142=CN|369=1357|10=100|
20180126-15:00:03.715 : 8=FIX.4.2|9=240|35=D|34=1105|49=P75004N|50=Falcon001|52=20180126-15:00:03.715|56=CME|57=G|142=CN|369=1357|1=ABC|11=201801260001|21=1|38=100|40=2|44=275000|54=1|59=0|60=20180126-15:00:03|107=ESH8|167=FUT|204=1|210=100|1028=Y|1031=F|9702=1|9717=201801260001|10=176|
20180126-15:00:03.903 : 8=FIX.4.2|9=349|35=8|34=1358|369=1105|52=20180126-15:00:03.812|49=CME|50=G|56=P75004N|57=FALCON001|143=CN|1=ABC|6=0|11=201801260001|14=0|17=64387:443036|20=0|37=64494070511|38=100|39=0|40=2|41=0|44=275000|48=404153|54=1|55=ES|59=0|60=20180126-15:00:03.810|107=ESH8|150=0|151=100|167=FUT|210=100|432=20180126|1028=Y|1031=F|5979=1516978803810590581|9717=201801260001|10=163|
20180126-15:00:33.825 : 8=FIX.4.2|9=90|35=0|34=1106|49=P75004N|50=Falcon001|52=20180126-15:00:33.825|56=CME|57=G|142=CN|369=1358|10=107|
20180126-15:00:34.449 : 8=FIX.4.2|9=90|35=0|34=1359|369=1106|52=20180126-15:00:34.358|49=CME|50=G|56=P75004N|57=FALCON001|143=CN|10=207|
20180126-15:01:03.864 : 8=FIX.4.2|9=90|35=0|34=1107|49=P75004N|50=Falcon001|52=20180126-15:01:03.863|56=CME|57=G|142=CN|369=1359|10=109|
20180126-15:01:05.451 : 8=FIX.4.2|9=90|35=0|34=1360|369=1107|52=20180126-15:01:05.360|49=CME|50=G|56=P75004N|57=FALCON001|143=CN|10=192|
20180126-15:01:33.896 : 8=FIX.4.2|9=90|35=0|34=1108|49=P75004N|50=Falcon001|52=20180126-15:01:33.895|56=CME|57=G|142=CN|369=1360|10=110|
20180126-15:01:36.453 : 8=FIX.4.2|9=90|35=0|34=1361|369=1108|52=20180126-15:01:36.363|49=CME|50=G|56=P75004N|57=FALCON001|143=CN|10=201|
20180126-15:02:03.928 : 8=FIX.4.2|9=90|35=0|34=1109|49=P75004N|50=Falcon001|52=20180126-15:02:03.928|56=CME|57=G|142=CN|369=1361|10=107|
20180126-15:02:07.456 : 8=FIX.4.2|9=90|35=0|34=1362|369=1109|52=20180126-15:02:07.365|49=CME|50=G|56=P75004N|57=FALCON001|143=CN|10=204|
20180126-15:02:33.961 : 8=FIX.4.2|9=90|35=0|34=1110|49=P75004N|50=Falcon001|52=20180126-15:02:33.960|56=CME|57=G|142=CN|369=1362|10=099|
20180126-15:02:38.330 : 8=FIX.4.2|9=271|35=G|34=1111|49=P75004N|50=Falcon001|52=20180126-15:02:38.330|56=CME|57=G|142=CN|369=1362|1=ABC|11=201801260002|21=1|37=64494070511|38=100|40=2|41=201801260001|44=276000|54=1|59=0|60=20180126-15:02:38|107=ESH8|167=FUT|204=1|210=100|1028=Y|1031=F|9702=1|9717=201801260002|10=153|
20180126-15:02:38.458 : 8=FIX.4.2|9=90|35=0|34=1363|369=1110|52=20180126-15:02:38.367|49=CME|50=G|56=P75004N|57=FALCON001|143=CN|10=203|
20180126-15:02:38.642 : 8=FIX.4.2|9=360|35=8|34=1364|369=1111|52=20180126-15:02:38.427|49=CME|50=G|56=P75004N|57=FALCON001|143=CN|1=ABC|6=0|11=201801260002|14=0|17=64387:445089|20=0|37=64494070511|38=100|39=5|40=2|41=201801260001|44=276000|48=404153|54=1|55=ES|59=0|60=20180126-15:02:38.425|107=ESH8|150=5|151=100|167=FUT|210=100|432=20180126|1028=Y|1031=F|5979=1516978958425483927|9717=201801260002|10=252|
20180126-15:03:09.000 : 8=FIX.4.2|9=90|35=0|34=1112|49=P75004N|50=Falcon001|52=20180126-15:03:08.999|56=CME|57=G|142=CN|369=1364|10=118|
20180126-15:03:09.461 : 8=FIX.4.2|9=90|35=0|34=1365|369=1112|52=20180126-15:03:09.371|49=CME|50=G|56=P75004N|57=FALCON001|143=CN|10=201|
20180126-15:03:38.031 : 8=FIX.4.2|9=90|35=0|34=1113|49=P75004N|50=Falcon001|52=20180126-15:03:38.031|56=CME|57=G|142=CN|369=1365|10=100|
20180126-15:03:40.466 : 8=FIX.4.2|9=90|35=0|34=1366|369=1113|52=20180126-15:03:40.375|49=CME|50=G|56=P75004N|57=FALCON001|143=CN|10=202|
20180126-15:04:08.064 : 8=FIX.4.2|9=90|35=0|34=1114|49=P75004N|50=Falcon001|52=20180126-15:04:08.063|56=CME|57=G|142=CN|369=1366|10=105|
20180126-15:04:11.471 : 8=FIX.4.2|9=90|35=0|34=1367|369=1114|52=20180126-15:04:11.380|49=CME|50=G|56=P75004N|57=FALCON001|143=CN|10=199|
20180126-15:04:38.097 : 8=FIX.4.2|9=90|35=0|34=1115|49=P75004N|50=Falcon001|52=20180126-15:04:38.097|56=CME|57=G|142=CN|369=1367|10=117|
20180126-15:04:42.476 : 8=FIX.4.2|9=90|35=0|34=1368|369=1115|52=20180126-15:04:42.385|49=CME|50=G|56=P75004N|57=FALCON001|143=CN|10=210|
20180126-15:05:08.130 : 8=FIX.4.2|9=90|35=0|34=1116|49=P75004N|50=Falcon001|52=20180126-15:05:08.130|56=CME|57=G|142=CN|369=1368|10=105|
20180126-15:05:13.480 : 8=FIX.4.2|9=90|35=0|34=1369|369=1116|52=20180126-15:05:13.389|49=CME|50=G|56=P75004N|57=FALCON001|143=CN|10=215|
20180126-15:05:38.163 : 8=FIX.4.2|9=90|35=0|34=1117|49=P75004N|50=Falcon001|52=20180126-15:05:38.162|56=CME|57=G|142=CN|369=1369|10=115|
20180126-15:05:39.887 : 8=FIX.4.2|9=271|35=G|34=1118|49=P75004N|50=Falcon001|52=20180126-15:05:39.886|56=CME|57=G|142=CN|369=1369|1=ABC|11=201801260003|21=1|37=64494070511|38=200|40=2|41=201801260002|44=276000|54=1|59=0|60=20180126-15:05:39|107=ESH8|167=FUT|204=1|210=200|1028=Y|1031=F|9702=1|9717=201801260003|10=196|
20180126-15:05:40.074 : 8=FIX.4.2|9=360|35=8|34=1370|369=1118|52=20180126-15:05:39.983|49=CME|50=G|56=P75004N|57=FALCON001|143=CN|1=ABC|6=0|11=201801260003|14=0|17=64387:447068|20=0|37=64494070511|38=200|39=5|40=2|41=201801260002|44=276000|48=404153|54=1|55=ES|59=0|60=20180126-15:05:39.982|107=ESH8|150=5|151=200|167=FUT|210=200|432=20180126|1028=Y|1031=F|5979=1516979139982056059|9717=201801260003|10=020|
20180126-15:06:06.194 : 8=FIX.4.2|9=99|35=5|34=1119|49=P75004N|50=Falcon001|52=20180126-15:06:06.193|56=CME|57=G|142=CN|369=1370|789=1119|10=045|
20180126-15:06:06.381 : 8=FIX.4.2|9=120|35=5|34=1371|369=1119|52=20180126-15:06:06.289|49=CME|50=G|56=P75004N|57=FALCON001|143=CN|58=Logout confirmed.|789=1120|10=216|
